{
  "contractName": "Crowdsale",
  "abi": [
    {
      "inputs": [
        {
          "name": "platformWallet",
          "type": "address"
        },
        {
          "name": "priceTokenBackingWallet",
          "type": "address"
        },
        {
          "name": "investBoxWallet",
          "type": "address"
        },
        {
          "name": "otherWallet",
          "type": "address"
        },
        {
          "name": "token",
          "type": "address"
        }
      ],
      "payable": false,
      "stateMutability": "nonpayable",
      "type": "constructor"
    },
    {
      "payable": true,
      "stateMutability": "payable",
      "type": "fallback"
    },
    {
      "anonymous": false,
      "inputs": [
        {
          "indexed": true,
          "name": "purchaser",
          "type": "address"
        },
        {
          "indexed": true,
          "name": "beneficiary",
          "type": "address"
        },
        {
          "indexed": false,
          "name": "value",
          "type": "uint256"
        },
        {
          "indexed": false,
          "name": "amount",
          "type": "uint256"
        }
      ],
      "name": "TokensPurchased",
      "type": "event"
    },
    {
      "constant": true,
      "inputs": [],
      "name": "token",
      "outputs": [
        {
          "name": "",
          "type": "address"
        }
      ],
      "payable": false,
      "stateMutability": "view",
      "type": "function"
    },
    {
      "constant": true,
      "inputs": [],
      "name": "platformWallet",
      "outputs": [
        {
          "name": "",
          "type": "address"
        }
      ],
      "payable": false,
      "stateMutability": "view",
      "type": "function"
    },
    {
      "constant": true,
      "inputs": [],
      "name": "rate",
      "outputs": [
        {
          "name": "",
          "type": "uint256"
        }
      ],
      "payable": false,
      "stateMutability": "view",
      "type": "function"
    },
    {
      "constant": true,
      "inputs": [],
      "name": "weiRaised",
      "outputs": [
        {
          "name": "",
          "type": "uint256"
        }
      ],
      "payable": false,
      "stateMutability": "view",
      "type": "function"
    },
    {
      "constant": false,
      "inputs": [
        {
          "name": "beneficiary",
          "type": "address"
        }
      ],
      "name": "buyTokens",
      "outputs": [],
      "payable": true,
      "stateMutability": "payable",
      "type": "function"
    }
  ],
  "bytecode": "0x608060405234801561001057600080fd5b5060405160a080610dc4833981018060405260a081101561003057600080fd5b5080516020820151604083015160608401516080909401516000805460ff19166001179055929391929091906001600160a01b03851615156100bd576040517f08c379a000000000000000000000000000000000000000000000000000000000815260040180806020018281038252602d815260200180610d6d602d913960400191505060405180910390fd5b6001600160a01b038416151561011e576040517f08c379a0000000000000000000000000000000000000000000000000000000008152600401808060200182810382526036815260200180610ce56036913960400191505060405180910390fd5b6001600160a01b038316151561017f576040517f08c379a000000000000000000000000000000000000000000000000000000000815260040180806020018281038252602e815260200180610d3f602e913960400191505060405180910390fd5b6001600160a01b03821615156101e0576040517f08c379a000000000000000000000000000000000000000000000000000000000815260040180806020018281038252602a815260200180610d9a602a913960400191505060405180910390fd5b6001600160a01b0381161515610241576040517f08c379a0000000000000000000000000000000000000000000000000000000008152600401808060200182810382526024815260200180610d1b6024913960400191505060405180910390fd5b600180546001600160a01b039687166001600160a01b03199182161790915560028054958716958216959095179094556003805493861693851693909317909255600480549185169190931617909155600080549190921661010002610100600160a81b0319909116179055610a29806102bc6000396000f3fe60806040526004361061004a5760003560e01c80632c4e722e1461005c5780634042b66f14610083578063ec8ac4d814610098578063fa2af9da146100be578063fc0c546a146100ef575b61005a610055610104565b610108565b005b34801561006857600080fd5b5061007161022f565b60408051918252519081900360200190f35b34801561008f57600080fd5b50610071610235565b61005a600480360360208110156100ae57600080fd5b50356001600160a01b0316610108565b3480156100ca57600080fd5b506100d361023b565b604080516001600160a01b039092168252519081900360200190f35b3480156100fb57600080fd5b506100d361024a565b3390565b60005460ff1615156101645760408051600160e51b62461bcd02815260206004820152601f60248201527f5265656e7472616e637947756172643a207265656e7472616e742063616c6c00604482015290519081900360640190fd5b6000805460ff1916905534610179828261025e565b600061018482610303565b60065490915061019a908363ffffffff61032016565b6006556101a78382610384565b826001600160a01b03166101b9610104565b6001600160a01b03167f6faf93231a456e552dbc9961f58d9713ee4f2e69d15f1975b050ef0911053a7b8484604051808381526020018281526020019250505060405180910390a361020b83836102ff565b61021361038e565b61021d83836102ff565b50506000805460ff1916600117905550565b60055490565b60065490565b6001546001600160a01b031690565b60005461010090046001600160a01b031690565b6001600160a01b03821615156102a857604051600160e51b62461bcd02815260040180806020018281038252602a8152602001806109aa602a913960400191505060405180910390fd5b8015156102ff5760408051600160e51b62461bcd02815260206004820152601960248201527f43726f776473616c653a20776569416d6f756e74206973203000000000000000604482015290519081900360640190fd5b5050565b600061031a6005548361051e90919063ffffffff16565b92915050565b60008282018381101561037d5760408051600160e51b62461bcd02815260206004820152601b60248201527f536166654d6174683a206164646974696f6e206f766572666c6f770000000000604482015290519081900360640190fd5b9392505050565b6102ff828261057e565b3460006103b3601e6103a784606463ffffffff61059a16565b9063ffffffff61051e16565b905060006103cd600a6103a785606463ffffffff61059a16565b905060006103e7600a6103a786606463ffffffff61059a16565b90506000610401600a6103a787606463ffffffff61059a16565b905060006104298261041d858188818c8c63ffffffff6105dc16565b9063ffffffff6105dc16565b6001546040519192506001600160a01b03169086156108fc029087906000818181858888f19350505050158015610464573d6000803e3d6000fd5b506002546040516001600160a01b039091169085156108fc029086906000818181858888f1935050505015801561049f573d6000803e3d6000fd5b506003546040516001600160a01b039091169084156108fc029085906000818181858888f193505050501580156104da573d6000803e3d6000fd5b506004546040516001600160a01b039091169082156108fc029083906000818181858888f19350505050158015610515573d6000803e3d6000fd5b50505050505050565b600082151561052f5750600061031a565b82820282848281151561053e57fe5b041461037d57604051600160e51b62461bcd0281526004018080602001828103825260218152602001806109896021913960400191505060405180910390fd5b6000546102ff9061010090046001600160a01b0316838361061e565b600061037d83836040518060400160405280601a81526020017f536166654d6174683a206469766973696f6e206279207a65726f000000000000815250610678565b600061037d83836040518060400160405280601e81526020017f536166654d6174683a207375627472616374696f6e206f766572666c6f770000815250610721565b604080516001600160a01b038416602482015260448082018490528251808303909101815260649091019091526020810180516001600160e01b0316600160e01b63a9059cbb0217905261067390849061077f565b505050565b60008183151561070957604051600160e51b62461bcd0281526004018080602001828103825283818151815260200191508051906020019080838360005b838110156106ce5781810151838201526020016106b6565b50505050905090810190601f1680156106fb5780820380516001836020036101000a031916815260200191505b509250505060405180910390fd5b506000838581151561071757fe5b0495945050505050565b6000818484111561077757604051600160e51b62461bcd028152600401808060200182810382528381815181526020019150805190602001908083836000838110156106ce5781810151838201526020016106b6565b505050900390565b610791826001600160a01b031661094c565b15156107e75760408051600160e51b62461bcd02815260206004820152601f60248201527f5361666545524332303a2063616c6c20746f206e6f6e2d636f6e747261637400604482015290519081900360640190fd5b60006060836001600160a01b0316836040518082805190602001908083835b602083106108255780518252601f199092019160209182019101610806565b6001836020036101000a0380198251168184511680821785525050505050509050019150506000604051808303816000865af19150503d8060008114610887576040519150601f19603f3d011682016040523d82523d6000602084013e61088c565b606091505b50915091508115156108e85760408051600160e51b62461bcd02815260206004820181905260248201527f5361666545524332303a206c6f772d6c6576656c2063616c6c206661696c6564604482015290519081900360640190fd5b8051156109465780806020019051602081101561090457600080fd5b5051151561094657604051600160e51b62461bcd02815260040180806020018281038252602a8152602001806109d4602a913960400191505060405180910390fd5b50505050565b6000813f7fc5d2460186f7233c927e7db2dcc703c0e500b653ca82273b7bfad8045d85a47081811480159061098057508115155b94935050505056fe536166654d6174683a206d756c7469706c69636174696f6e206f766572666c6f7743726f776473616c653a2062656e656669636961727920697320746865207a65726f20616464726573735361666545524332303a204552433230206f7065726174696f6e20646964206e6f742073756363656564a165627a7a723058204d32ddc7b965e9d1ad8bcfa90a7cd86e1bbfb78e46283620d2260fc07b82e03e002943726f776473616c653a207072696365546f6b656e4261636b696e6757616c6c657420697320746865207a65726f206164647265737343726f776473616c653a20746f6b656e20697320746865207a65726f206164647265737343726f776473616c653a20696e76657374426f7857616c6c657420697320746865207a65726f206164647265737343726f776473616c653a20706c6174666f726d57616c6c657420697320746865207a65726f206164647265737343726f776473616c653a206f7468657257616c6c657420697320746865207a65726f2061646472657373",
  "source": "pragma solidity ^0.5.0;\r\n\r\nimport \"./Context.sol\";\r\nimport \"./IERC20.sol\";\r\nimport \"./SafeMath.sol\";\r\nimport \"./SafeERC20.sol\";\r\nimport \"./ReentrancyGuard.sol\";\r\n\r\n/**\r\n * @title Crowdsale\r\n * @dev Crowdsale is a base contract for managing a token crowdsale,\r\n * allowing investors to purchase tokens with ether. This contract implements\r\n * such functionality in its most fundamental form and can be extended to provide additional\r\n * functionality and/or custom behavior.\r\n * The external interface represents the basic interface for purchasing tokens, and conforms\r\n * the base architecture for crowdsales. It is *not* intended to be modified / overridden.\r\n * The internal interface conforms the extensible and modifiable surface of crowdsales. Override\r\n * the methods to add functionality. Consider using 'super' where appropriate to concatenate\r\n * behavior.\r\n */\r\ncontract Crowdsale is Context, ReentrancyGuard {\r\n    using SafeMath for uint256;\r\n    using SafeERC20 for IERC20;\r\n\r\n    // The token being sold\r\n    IERC20 private _token;\r\n\r\n    // Addresses where funds are collected\r\n    address payable private _platformWallet;\r\n    address payable private _priceTokenBackingWallet;\r\n    address payable private _investBoxWallet;\r\n    address payable private _otherWallet;\r\n\r\n    // How many token units a buyer gets per wei.\r\n    // The rate is the conversion between wei and the smallest and indivisible token unit.\r\n    // So, if you are using a rate of 1 with a ERC20Detailed token with 3 decimals called TOK\r\n    // 1 wei will give you 1 unit, or 0.001 TOK.\r\n    uint256 private _rate;\r\n\r\n    // Amount of wei raised\r\n    uint256 private _weiRaised;\r\n\r\n    /**\r\n     * Event for token purchase logging\r\n     * @param purchaser who paid for the tokens\r\n     * @param beneficiary who got the tokens\r\n     * @param value weis paid for purchase\r\n     * @param amount amount of tokens purchased\r\n     */\r\n    event TokensPurchased(address indexed purchaser, address indexed beneficiary, uint256 value, uint256 amount);\r\n\r\n    /**\r\n     * @dev The rate is the conversion between wei and the smallest and indivisible\r\n     * token unit. So, if you are using a rate of 1 with a ERC20Detailed token\r\n     * with 3 decimals called TOK, 1 wei will give you 1 unit, or 0.001 TOK.\r\n     * @param platformWallet The address where the funds raised for the development of the platform will be directed\r\n     * @param priceTokenBackingWallet The address where the funds raised to support the token price on the exchange will be sent\r\n     * @param investBoxWallet Address where the funds raised for investBox will be directed\r\n     * @param otherWallet Address where the rest of the collected funds will be sent\r\n     * @param token Address of the token being sold\r\n     */\r\n    constructor (\r\n        address payable platformWallet,\r\n        address payable priceTokenBackingWallet,\r\n        address payable investBoxWallet,\r\n        address payable otherWallet,\r\n        IERC20 token\r\n    ) \r\n        public \r\n    {\r\n        require(platformWallet != address(0), \"Crowdsale: platformWallet is the zero address\");\r\n        require(priceTokenBackingWallet != address(0), \"Crowdsale: priceTokenBackingWallet is the zero address\");\r\n        require(investBoxWallet != address(0), \"Crowdsale: investBoxWallet is the zero address\");\r\n        require(otherWallet != address(0), \"Crowdsale: otherWallet is the zero address\");\r\n        require(address(token) != address(0), \"Crowdsale: token is the zero address\");\r\n\r\n        _platformWallet = platformWallet;\r\n        _priceTokenBackingWallet = priceTokenBackingWallet;\r\n        _investBoxWallet = investBoxWallet;\r\n        _otherWallet = otherWallet;\r\n        _token = token;\r\n    }\r\n\r\n    /**\r\n     * @dev fallback function ***DO NOT OVERRIDE***\r\n     * Note that other contracts will transfer funds with a base gas stipend\r\n     * of 2300, which is not enough to call buyTokens. Consider calling\r\n     * buyTokens directly when purchasing tokens from a contract.\r\n     */\r\n    function () external payable {\r\n        buyTokens(_msgSender());\r\n    }\r\n\r\n    /**\r\n     * @return the token being sold.\r\n     */\r\n    function token() public view returns (IERC20) {\r\n        return _token;\r\n    }\r\n\r\n    /**\r\n     * @return the address where the funds raised for the development of the platform are collected.\r\n     */\r\n    function platformWallet() public view returns (address payable) {\r\n        return _platformWallet;\r\n    }\r\n\r\n    /**\r\n     * @return the number of token units a buyer gets per wei.\r\n     */\r\n    function rate() public view returns (uint256) {\r\n        return _rate;\r\n    }\r\n    \r\n    /**\r\n     * @return the number of token units a buyer gets per wei.\r\n     */\r\n    function setRate(uint256 stageRate) internal {\r\n        _rate = stageRate;\r\n    }\r\n\r\n    /**\r\n     * @return the amount of wei raised.\r\n     */\r\n    function weiRaised() public view returns (uint256) {\r\n        return _weiRaised;\r\n    }\r\n\r\n    /**\r\n     * @dev low level token purchase ***DO NOT OVERRIDE***\r\n     * This function has a non-reentrancy guard, so it shouldn't be called by\r\n     * another `nonReentrant` function.\r\n     * @param beneficiary Recipient of the token purchase\r\n     */\r\n    function buyTokens(address beneficiary) public nonReentrant payable {\r\n        uint256 weiAmount = msg.value;\r\n        _preValidatePurchase(beneficiary, weiAmount);\r\n\r\n        // calculate token amount to be created\r\n        uint256 tokens = _getTokenAmount(weiAmount);\r\n\r\n        // update state\r\n        _weiRaised = _weiRaised.add(weiAmount);\r\n\r\n        _processPurchase(beneficiary, tokens);\r\n        emit TokensPurchased(_msgSender(), beneficiary, weiAmount, tokens);\r\n\r\n        _updatePurchasingState(beneficiary, weiAmount);\r\n\r\n        _forwardFunds();\r\n        _postValidatePurchase(beneficiary, weiAmount);\r\n    }\r\n\r\n    /**\r\n     * @dev Validation of an incoming purchase. Use require statements to revert state when conditions are not met.\r\n     * Use `super` in contracts that inherit from Crowdsale to extend their validations.\r\n     * Example from CappedCrowdsale.sol's _preValidatePurchase method:\r\n     *     super._preValidatePurchase(beneficiary, weiAmount);\r\n     *     require(weiRaised().add(weiAmount) <= cap);\r\n     * @param beneficiary Address performing the token purchase\r\n     * @param weiAmount Value in wei involved in the purchase\r\n     */\r\n    function _preValidatePurchase(address beneficiary, uint256 weiAmount) internal view {\r\n        require(beneficiary != address(0), \"Crowdsale: beneficiary is the zero address\");\r\n        require(weiAmount != 0, \"Crowdsale: weiAmount is 0\");\r\n\t\t\r\n        this; // silence state mutability warning without generating bytecode - see https://github.com/ethereum/solidity/issues/2691\r\n    }\r\n\r\n    /**\r\n     * @dev Validation of an executed purchase. Observe state and use revert statements to undo rollback when valid\r\n     * conditions are not met.\r\n     * @param beneficiary Address performing the token purchase\r\n     * @param weiAmount Value in wei involved in the purchase\r\n     */\r\n    function _postValidatePurchase(address beneficiary, uint256 weiAmount) internal {\r\n        // solhint-disable-previous-line no-empty-blocks\r\n    }\r\n\r\n    /**\r\n     * @dev Source of tokens. Override this method to modify the way in which the crowdsale ultimately gets and sends\r\n     * its tokens.\r\n     * @param beneficiary Address performing the token purchase\r\n     * @param tokenAmount Number of tokens to be emitted\r\n     */\r\n    function _deliverTokens(address beneficiary, uint256 tokenAmount) internal {\r\n        _token.safeTransfer(beneficiary, tokenAmount);\r\n    }\r\n\r\n    /**\r\n     * @dev Executed when a purchase has been validated and is ready to be executed. Doesn't necessarily emit/send\r\n     * tokens.\r\n     * @param beneficiary Address receiving the tokens\r\n     * @param tokenAmount Number of tokens to be purchased\r\n     */\r\n    function _processPurchase(address beneficiary, uint256 tokenAmount) internal {\r\n        _deliverTokens(beneficiary, tokenAmount);\r\n    }\r\n\r\n    /**\r\n     * @dev Override for extensions that require an internal state to check for validity (current user contributions,\r\n     * etc.)\r\n     * @param beneficiary Address receiving the tokens\r\n     * @param weiAmount Value in wei involved in the purchase\r\n     */\r\n    function _updatePurchasingState(address beneficiary, uint256 weiAmount) internal {\r\n        // solhint-disable-previous-line no-empty-blocks\r\n    }\r\n\r\n    /**\r\n     * @dev Override to extend the way in which ether is converted to tokens.\r\n     * @param weiAmount Value in wei to be converted into tokens\r\n     * @return Number of tokens that can be purchased with the specified _weiAmount\r\n     */\r\n    function _getTokenAmount(uint256 weiAmount) internal view returns (uint256) {\r\n        return weiAmount.mul(_rate);\r\n    }\r\n\r\n    /**\r\n     * @dev Determines how ETH is stored/forwarded on purchases.\r\n     */\r\n    function _forwardFunds() internal {\r\n        uint256 sum = msg.value;\r\n        uint256 platformSum = sum.div(100).mul(30);\r\n        uint256 backingSum = sum.div(100).mul(10);\r\n        uint256 investBoxSum = sum.div(100).mul(10);\r\n        uint256 buyoutSum = sum.div(100).mul(10);\r\n        uint256 otherSum = sum.sub(platformSum).sub(backingSum).sub(investBoxSum).sub(buyoutSum);\r\n        \r\n        _platformWallet.transfer(platformSum);\r\n        _priceTokenBackingWallet.transfer(backingSum);\r\n        _investBoxWallet.transfer(investBoxSum);\r\n        _otherWallet.transfer(otherSum);\r\n    }\r\n}",
  "sourcePath": "F:\\YandexDisk\\Projects\\crypto\\ICO\\contracts\\truffle\\contracts\\Crowdsale.sol",
  "compiler": {
    "name": "solc",
    "version": "0.5.5+commit.47a71e8f.Emscripten.clang"
  },
  "schemaVersion": "3.0.23",
  "updatedAt": "2020-02-22T21:33:10.017Z",
  "devdoc": {
    "details": "Crowdsale is a base contract for managing a token crowdsale,\r allowing investors to purchase tokens with ether. This contract implements\r such functionality in its most fundamental form and can be extended to provide additional\r functionality and/or custom behavior.\r The external interface represents the basic interface for purchasing tokens, and conforms\r the base architecture for crowdsales. It is *not* intended to be modified / overridden.\r The internal interface conforms the extensible and modifiable surface of crowdsales. Override\r the methods to add functionality. Consider using 'super' where appropriate to concatenate\r behavior.\r",
    "methods": {
      "buyTokens(address)": {
        "details": "low level token purchase ***DO NOT OVERRIDE***\r This function has a non-reentrancy guard, so it shouldn't be called by\r another `nonReentrant` function.\r",
        "params": {
          "beneficiary": "Recipient of the token purchase\r"
        }
      },
      "constructor": {
        "details": "The rate is the conversion between wei and the smallest and indivisible\r token unit. So, if you are using a rate of 1 with a ERC20Detailed token\r with 3 decimals called TOK, 1 wei will give you 1 unit, or 0.001 TOK.\r",
        "params": {
          "investBoxWallet": "Address where the funds raised for investBox will be directed\r",
          "otherWallet": "Address where the rest of the collected funds will be sent\r",
          "platformWallet": "The address where the funds raised for the development of the platform will be directed\r",
          "priceTokenBackingWallet": "The address where the funds raised to support the token price on the exchange will be sent\r",
          "token": "Address of the token being sold\r"
        }
      },
      "platformWallet()": {
        "return": "the address where the funds raised for the development of the platform are collected.\r"
      },
      "rate()": {
        "return": "the number of token units a buyer gets per wei.\r"
      },
      "token()": {
        "return": "the token being sold.\r"
      },
      "weiRaised()": {
        "return": "the amount of wei raised.\r"
      }
    },
    "title": "Crowdsale\r"
  },
  "userdoc": {
    "methods": {}
  }
}