{
  "contractName": "HpaCrowdsale",
  "abi": [
    {
      "constant": true,
      "inputs": [],
      "name": "hasClosed",
      "outputs": [
        {
          "name": "",
          "type": "bool"
        }
      ],
      "payable": false,
      "stateMutability": "view",
      "type": "function"
    },
    {
      "constant": true,
      "inputs": [
        {
          "name": "stageNumber",
          "type": "uint256"
        }
      ],
      "name": "stageTiming",
      "outputs": [
        {
          "name": "",
          "type": "uint256"
        },
        {
          "name": "",
          "type": "uint256"
        }
      ],
      "payable": false,
      "stateMutability": "view",
      "type": "function"
    },
    {
      "constant": true,
      "inputs": [],
      "name": "getTimeBuyback",
      "outputs": [
        {
          "name": "",
          "type": "uint256"
        }
      ],
      "payable": false,
      "stateMutability": "view",
      "type": "function"
    },
    {
      "constant": true,
      "inputs": [],
      "name": "rate",
      "outputs": [
        {
          "name": "",
          "type": "uint256"
        }
      ],
      "payable": false,
      "stateMutability": "view",
      "type": "function"
    },
    {
      "constant": true,
      "inputs": [],
      "name": "getDistTokens",
      "outputs": [
        {
          "name": "",
          "type": "uint256"
        }
      ],
      "payable": false,
      "stateMutability": "view",
      "type": "function"
    },
    {
      "constant": false,
      "inputs": [],
      "name": "buybackCalc",
      "outputs": [],
      "payable": false,
      "stateMutability": "nonpayable",
      "type": "function"
    },
    {
      "constant": true,
      "inputs": [],
      "name": "getBuybackBalance",
      "outputs": [
        {
          "name": "",
          "type": "uint256"
        }
      ],
      "payable": false,
      "stateMutability": "view",
      "type": "function"
    },
    {
      "constant": true,
      "inputs": [],
      "name": "weiRaised",
      "outputs": [
        {
          "name": "",
          "type": "uint256"
        }
      ],
      "payable": false,
      "stateMutability": "view",
      "type": "function"
    },
    {
      "constant": true,
      "inputs": [],
      "name": "isOpen",
      "outputs": [
        {
          "name": "",
          "type": "bool"
        }
      ],
      "payable": false,
      "stateMutability": "view",
      "type": "function"
    },
    {
      "constant": false,
      "inputs": [
        {
          "name": "beneficiary",
          "type": "address"
        }
      ],
      "name": "withdrawalUnsoldTokens",
      "outputs": [],
      "payable": false,
      "stateMutability": "nonpayable",
      "type": "function"
    },
    {
      "constant": true,
      "inputs": [],
      "name": "stageCapReached",
      "outputs": [
        {
          "name": "",
          "type": "bool"
        }
      ],
      "payable": false,
      "stateMutability": "view",
      "type": "function"
    },
    {
      "constant": true,
      "inputs": [],
      "name": "refPercent",
      "outputs": [
        {
          "name": "",
          "type": "uint256"
        }
      ],
      "payable": false,
      "stateMutability": "view",
      "type": "function"
    },
    {
      "constant": true,
      "inputs": [],
      "name": "currentStage",
      "outputs": [
        {
          "name": "",
          "type": "uint256"
        }
      ],
      "payable": false,
      "stateMutability": "view",
      "type": "function"
    },
    {
      "constant": false,
      "inputs": [
        {
          "name": "beneficiary",
          "type": "address"
        },
        {
          "name": "hpaAmount",
          "type": "uint256"
        }
      ],
      "name": "buyback",
      "outputs": [],
      "payable": false,
      "stateMutability": "nonpayable",
      "type": "function"
    },
    {
      "constant": false,
      "inputs": [],
      "name": "distCalc",
      "outputs": [],
      "payable": false,
      "stateMutability": "nonpayable",
      "type": "function"
    },
    {
      "constant": false,
      "inputs": [],
      "name": "renounceOwnership",
      "outputs": [],
      "payable": false,
      "stateMutability": "nonpayable",
      "type": "function"
    },
    {
      "constant": true,
      "inputs": [
        {
          "name": "s",
          "type": "uint256"
        }
      ],
      "name": "viewStage",
      "outputs": [
        {
          "name": "",
          "type": "uint256"
        },
        {
          "name": "",
          "type": "uint256"
        },
        {
          "name": "",
          "type": "uint256"
        },
        {
          "name": "",
          "type": "uint256"
        },
        {
          "name": "",
          "type": "uint256"
        },
        {
          "name": "",
          "type": "uint256"
        },
        {
          "name": "",
          "type": "uint256"
        }
      ],
      "payable": false,
      "stateMutability": "view",
      "type": "function"
    },
    {
      "constant": true,
      "inputs": [],
      "name": "getBuybackPrice",
      "outputs": [
        {
          "name": "",
          "type": "uint256"
        }
      ],
      "payable": false,
      "stateMutability": "view",
      "type": "function"
    },
    {
      "constant": true,
      "inputs": [],
      "name": "getMyInfo",
      "outputs": [
        {
          "name": "",
          "type": "uint256"
        },
        {
          "components": [
            {
              "name": "referral",
              "type": "address"
            },
            {
              "name": "referralSum",
              "type": "uint256"
            }
          ],
          "name": "",
          "type": "tuple[]"
        },
        {
          "name": "",
          "type": "uint256"
        },
        {
          "components": [
            {
              "name": "stage",
              "type": "uint256"
            },
            {
              "name": "price",
              "type": "uint256"
            },
            {
              "name": "sumEth",
              "type": "uint256"
            },
            {
              "name": "sumHpa",
              "type": "uint256"
            },
            {
              "name": "time",
              "type": "uint256"
            }
          ],
          "name": "",
          "type": "tuple[]"
        }
      ],
      "payable": false,
      "stateMutability": "view",
      "type": "function"
    },
    {
      "constant": false,
      "inputs": [],
      "name": "manualyCloseCurrentStage",
      "outputs": [
        {
          "name": "",
          "type": "bool"
        }
      ],
      "payable": false,
      "stateMutability": "nonpayable",
      "type": "function"
    },
    {
      "constant": true,
      "inputs": [],
      "name": "owner",
      "outputs": [
        {
          "name": "",
          "type": "address"
        }
      ],
      "payable": false,
      "stateMutability": "view",
      "type": "function"
    },
    {
      "constant": true,
      "inputs": [],
      "name": "getThisBalance",
      "outputs": [
        {
          "name": "",
          "type": "uint256"
        }
      ],
      "payable": false,
      "stateMutability": "view",
      "type": "function"
    },
    {
      "constant": true,
      "inputs": [],
      "name": "isOwner",
      "outputs": [
        {
          "name": "",
          "type": "bool"
        }
      ],
      "payable": false,
      "stateMutability": "view",
      "type": "function"
    },
    {
      "constant": true,
      "inputs": [
        {
          "name": "",
          "type": "uint256"
        }
      ],
      "name": "_stages",
      "outputs": [
        {
          "name": "rate",
          "type": "uint256"
        },
        {
          "name": "cap",
          "type": "uint256"
        },
        {
          "name": "refPercent",
          "type": "uint256"
        },
        {
          "name": "unsoldDistPercent",
          "type": "uint256"
        },
        {
          "name": "minEthDist",
          "type": "uint256"
        },
        {
          "name": "minHpaDist",
          "type": "uint256"
        },
        {
          "name": "period",
          "type": "uint256"
        }
      ],
      "payable": false,
      "stateMutability": "view",
      "type": "function"
    },
    {
      "constant": false,
      "inputs": [
        {
          "name": "ownerAddress",
          "type": "address"
        }
      ],
      "name": "withdrawal",
      "outputs": [],
      "payable": false,
      "stateMutability": "nonpayable",
      "type": "function"
    },
    {
      "constant": true,
      "inputs": [
        {
          "name": "stage",
          "type": "uint256"
        },
        {
          "name": "buyer",
          "type": "address"
        }
      ],
      "name": "getBuyerStagePartDistInfo",
      "outputs": [
        {
          "name": "",
          "type": "uint256"
        },
        {
          "name": "",
          "type": "uint256"
        },
        {
          "name": "",
          "type": "bool"
        }
      ],
      "payable": false,
      "stateMutability": "view",
      "type": "function"
    },
    {
      "constant": true,
      "inputs": [],
      "name": "remStageTime",
      "outputs": [
        {
          "name": "",
          "type": "uint256"
        }
      ],
      "payable": false,
      "stateMutability": "view",
      "type": "function"
    },
    {
      "constant": true,
      "inputs": [],
      "name": "getMyStagesPartDist",
      "outputs": [
        {
          "name": "",
          "type": "uint256[]"
        }
      ],
      "payable": false,
      "stateMutability": "view",
      "type": "function"
    },
    {
      "constant": true,
      "inputs": [
        {
          "name": "s",
          "type": "uint256"
        }
      ],
      "name": "viewStageStat",
      "outputs": [
        {
          "name": "",
          "type": "uint256"
        },
        {
          "name": "",
          "type": "uint256"
        },
        {
          "name": "",
          "type": "uint256"
        },
        {
          "name": "",
          "type": "uint256"
        },
        {
          "name": "",
          "type": "uint256"
        },
        {
          "name": "",
          "type": "uint256"
        }
      ],
      "payable": false,
      "stateMutability": "view",
      "type": "function"
    },
    {
      "constant": false,
      "inputs": [
        {
          "name": "beneficiary",
          "type": "address"
        }
      ],
      "name": "buyTokens",
      "outputs": [],
      "payable": true,
      "stateMutability": "payable",
      "type": "function"
    },
    {
      "constant": false,
      "inputs": [
        {
          "name": "newOwner",
          "type": "address"
        }
      ],
      "name": "transferOwnership",
      "outputs": [],
      "payable": false,
      "stateMutability": "nonpayable",
      "type": "function"
    },
    {
      "constant": true,
      "inputs": [],
      "name": "platformWallet",
      "outputs": [
        {
          "name": "",
          "type": "address"
        }
      ],
      "payable": false,
      "stateMutability": "view",
      "type": "function"
    },
    {
      "constant": true,
      "inputs": [],
      "name": "getTimeCalc",
      "outputs": [
        {
          "name": "",
          "type": "uint256"
        }
      ],
      "payable": false,
      "stateMutability": "view",
      "type": "function"
    },
    {
      "constant": true,
      "inputs": [],
      "name": "token",
      "outputs": [
        {
          "name": "",
          "type": "address"
        }
      ],
      "payable": false,
      "stateMutability": "view",
      "type": "function"
    },
    {
      "inputs": [
        {
          "name": "platformWallet",
          "type": "address"
        },
        {
          "name": "priceTokenBackingWallet",
          "type": "address"
        },
        {
          "name": "investBoxWallet",
          "type": "address"
        },
        {
          "name": "otherWallet",
          "type": "address"
        }
      ],
      "payable": false,
      "stateMutability": "nonpayable",
      "type": "constructor"
    },
    {
      "payable": true,
      "stateMutability": "payable",
      "type": "fallback"
    },
    {
      "anonymous": false,
      "inputs": [
        {
          "indexed": true,
          "name": "previousOwner",
          "type": "address"
        },
        {
          "indexed": true,
          "name": "newOwner",
          "type": "address"
        }
      ],
      "name": "OwnershipTransferred",
      "type": "event"
    },
    {
      "anonymous": false,
      "inputs": [
        {
          "indexed": true,
          "name": "purchaser",
          "type": "address"
        },
        {
          "indexed": true,
          "name": "beneficiary",
          "type": "address"
        },
        {
          "indexed": false,
          "name": "value",
          "type": "uint256"
        },
        {
          "indexed": false,
          "name": "amount",
          "type": "uint256"
        }
      ],
      "name": "TokensPurchased",
      "type": "event"
    }
  ],
  "bytecode": "0x608060405260e0805460ff1916905560e78054600160a01b60ff02191690553480156200002b57600080fd5b506040516080806200501b83398101806040526200004d919081019062000764565b600584848484604051620000619062000748565b604051809103906000f0801580156200007e573d6000803e3d6000fd5b506000805460ff191660011790556001600160a01b0385161515620000da576040517f08c379a0000000000000000000000000000000000000000000000000000000008152600401620000d19062000ab5565b60405180910390fd5b6001600160a01b03841615156200011f576040517f08c379a0000000000000000000000000000000000000000000000000000000008152600401620000d19062000a67565b6001600160a01b038316151562000164576040517f08c379a0000000000000000000000000000000000000000000000000000000008152600401620000d19062000a91565b6001600160a01b0382161515620001a9576040517f08c379a0000000000000000000000000000000000000000000000000000000008152600401620000d19062000ac7565b6001600160a01b0381161515620001ee576040517f08c379a0000000000000000000000000000000000000000000000000000000008152600401620000d19062000a7f565b600180546001600160a01b039687166001600160a01b03199182161790915560028054958716958216959095179094556003805493861693851693909317909255600480549185169190931617909155600080549190921661010002610100600160a81b03199091161781556200027090808080806200055f602090811b901c565b62000292600160008069010f0cf064dd5920000060006200055f60201b60201c565b620002b4600260008069021e19e0c9bab240000060006200055f60201b60201c565b620002d6600360008069043c33c193756480000060006200055f60201b60201c565b620002f86004600080690878678326eac900000060006200055f60201b60201c565b6200031a600560008069152d02c7e14af680000060006200055f60201b60201c565b80151562000356576040517f08c379a0000000000000000000000000000000000000000000000000000000008152600401620000d19062000aa3565b60715560006200036c620005e8602090811b901c565b607280546001600160a01b0319166001600160a01b038316908117909155604051919250906000907f8be0079c531659141344cd1fd0a4f28419497f9722a3daafe3b4186f6b6457e0908290a350620003d6600080600080600080600080620005ec60201b60201c565b6200040960016305f5e100652d79883d20006005600a6402540be400670de0b6b3a76400006000620005ec60201b60201c565b620004306002629896806603baf82d03a00060056000806000603c620005ec60201b60201c565b620004576003620f4240664ac8dd0c85a00060076000806000603c620005ec60201b60201c565b6200048e6004620186a06705d7debe82ada000600a601e683635c9adc5dea00000662386f26fc10000603c620005ec60201b60201c565b620004c4600561271067909f01c30c95a000600f603c681b1ae4d6e2ef50000066b1a2bc2ec50000603c620005ec60201b60201c565b6001607355607d54620004de9062000686602090811b901c565b620005086074607354600f81101515620004f457fe5b60070201600001546200068b60201b60201c565b6200051c607354426200069060201b60201c565b620005386001600f620006ae60201b620017af1790919060201c565b60de55505062ed4e0060e655505060e780546001600160a01b031916600117905562000b35565b6040518060c00160405280858152602001848152602001838152602001828152602001600081526020016000815250600786600f811015156200059e57fe5b60070201600082015181600001556020820151816001015560408201518160020155606082015181600301556080820151816005015560a082015181600601559050505050505050565b3390565b6040518060e0016040528088815260200187815260200186815260200185815260200184815260200183815260200182815250607489600f811015156200062f57fe5b60070201600082015181600001556020820151816001015560408201518160020155606082015181600301556080820151816004015560a0820151816005015560c082015181600601559050505050505050505050565b607155565b600555565b80600783600f81106200069f57fe5b60070201600501819055505050565b6000620006f883836040518060400160405280601e81526020017f536166654d6174683a207375627472616374696f6e206f766572666c6f770000815250620006ff60201b60201c565b9392505050565b6000818484111562000740576040517f08c379a0000000000000000000000000000000000000000000000000000000008152600401620000d1919062000a54565b505050900390565b6112528062003dc983390190565b6000620006f8825162000ae6565b600080600080608085870312156200077b57600080fd5b600062000789878762000756565b94505060206200079c8782880162000756565b9350506040620007af8782880162000756565b9250506060620007c28782880162000756565b91505092959194509250565b6000620007db8262000ad9565b620007e7818562000add565b9350620007f981856020860162000af8565b620008048162000b2b565b9093019392505050565b60006200081d60368362000add565b7f43726f776473616c653a207072696365546f6b656e4261636b696e6757616c6c81527f657420697320746865207a65726f206164647265737300000000000000000000602082015260400192915050565b60006200087e60248362000add565b7f43726f776473616c653a20746f6b656e20697320746865207a65726f2061646481527f7265737300000000000000000000000000000000000000000000000000000000602082015260400192915050565b6000620008df602e8362000add565b7f43726f776473616c653a20696e76657374426f7857616c6c657420697320746881527f65207a65726f2061646472657373000000000000000000000000000000000000602082015260400192915050565b60006200094060378362000add565b7f526566657272616c43726f776473616c653a2070657263656e74616765206d7581527f73742062652067726561746572207468616e207a65726f000000000000000000602082015260400192915050565b6000620009a1602d8362000add565b7f43726f776473616c653a20706c6174666f726d57616c6c65742069732074686581527f207a65726f206164647265737300000000000000000000000000000000000000602082015260400192915050565b600062000a02602a8362000add565b7f43726f776473616c653a206f7468657257616c6c657420697320746865207a6581527f726f206164647265737300000000000000000000000000000000000000000000602082015260400192915050565b60208082528101620006f88184620007ce565b6020808252810162000a79816200080e565b92915050565b6020808252810162000a79816200086f565b6020808252810162000a7981620008d0565b6020808252810162000a798162000931565b6020808252810162000a798162000992565b6020808252810162000a7981620009f3565b5190565b90815260200190565b60006001600160a01b03821662000a79565b60005b8381101562000b1557818101518382015260200162000afb565b8381111562000b25576000848401525b50505050565b601f01601f191690565b6132848062000b456000396000f3fe6080604052600436106101f95760003560e01c806378fbc8781161010d57806398f62fcf116100a0578063ec8ac4d81161006f578063ec8ac4d814610553578063f2fde38b14610561578063fa2af9da14610581578063fb5d3ac414610596578063fc0c546a146105ab576101f9565b806398f62fcf146104bb5780639e10395c146104ea578063db87f01a146104ff578063e8633d0714610521576101f9565b80638e8cf4a8116100dc5780638e8cf4a8146104515780638f32d59b14610466578063953a25e61461047b578063961310491461049b576101f9565b806378fbc878146103e05780637daa10ce146103f557806380ad418a1461041a5780638da5cb5b1461042f576101f9565b806347535d7b116101905780635bf5d54c1161015f5780635bf5d54c1461034e578063655f767c146103635780636e63821e14610383578063715018a61461039857806374de67eb146103ad576101f9565b806347535d7b146102ef5780634e4790fe146103045780635837ac7e1461032457806359d5335b14610339576101f9565b80632c69fdef116101cc5780632c69fdef1461029b5780632e723c13146102b0578063365905c7146102c55780634042b66f146102da576101f9565b80631515bc2b1461020b5780632384fb1114610236578063299145fe146102645780632c4e722e14610286575b6102096102046105cd565b6105d2565b005b34801561021757600080fd5b506102206106c7565b60405161022d9190612ebc565b60405180910390f35b34801561024257600080fd5b506102566102513660046124af565b6106d7565b60405161022d9291906130d0565b34801561027057600080fd5b5061027961070f565b60405161022d9190613077565b34801561029257600080fd5b50610279610715565b3480156102a757600080fd5b5061027961071b565b3480156102bc57600080fd5b50610209610721565b3480156102d157600080fd5b50610279610890565b3480156102e657600080fd5b50610279610896565b3480156102fb57600080fd5b5061022061089c565b34801561031057600080fd5b5061020961031f366004612431565b610986565b34801561033057600080fd5b50610220610ab5565b34801561034557600080fd5b50610279610adf565b34801561035a57600080fd5b50610279610ae5565b34801561036f57600080fd5b5061020961037e366004612457565b610aeb565b34801561038f57600080fd5b50610209610d36565b3480156103a457600080fd5b50610209610dcd565b3480156103b957600080fd5b506103cd6103c83660046124af565b610e40565b60405161022d9796959493929190613160565b3480156103ec57600080fd5b50610279610ed9565b34801561040157600080fd5b5061040a610edf565b60405161022d9493929190613085565b34801561042657600080fd5b50610220611010565b34801561043b57600080fd5b5061044461110d565b60405161022d9190612e4c565b34801561045d57600080fd5b5061027961111c565b34801561047257600080fd5b50610220611121565b34801561048757600080fd5b506103cd6104963660046124af565b611147565b3480156104a757600080fd5b506102096104b6366004612431565b611187565b3480156104c757600080fd5b506104db6104d63660046124eb565b611294565b60405161022d939291906130de565b3480156104f657600080fd5b50610279611355565b34801561050b57600080fd5b506105146113ba565b60405161022d9190612eab565b34801561052d57600080fd5b5061054161053c3660046124af565b6113bf565b60405161022d96959493929190613106565b610209610204366004612431565b34801561056d57600080fd5b5061020961057c366004612431565b611447565b34801561058d57600080fd5b5061044461147c565b3480156105a257600080fd5b5061027961148b565b3480156105b757600080fd5b506105c0611491565b60405161022d9190612eca565b335b90565b60005460ff16151561060257604051600160e51b62461bcd0281526004016105f990613057565b60405180910390fd5b6000805460ff191690553461061782826114a5565b600061062282611529565b600654909150610638908363ffffffff61154616565b6006556106458382611575565b826001600160a01b03166106576105cd565b6001600160a01b03167f6faf93231a456e552dbc9961f58d9713ee4f2e69d15f1975b050ef0911053a7b84846040516106919291906130d0565b60405180910390a36106a3838361157f565b6106ab6115b1565b6106b58383611741565b50506000805460ff1916600117905550565b60006106d161089c565b15905090565b600080600783600f81106106e757fe5b6007020160050154600784600f811015156106fe57fe5b600702016006015491509150915091565b60e65490565b60055490565b60df5490565b610729611121565b151561074a57604051600160e51b62461bcd0281526004016105f990612fc7565b6107526106c7565b151561077357604051600160e51b62461bcd0281526004016105f990612f77565b60e754600160a01b900460ff16156107a057604051600160e51b62461bcd0281526004016105f990612f97565b303160e381905515156107c857604051600160e51b62461bcd0281526004016105f990612fe7565b610863610854600a6107d8611491565b6001600160a01b03166318160ddd6040518163ffffffff1660e01b815260040160206040518083038186803b15801561081057600080fd5b505afa158015610824573d6000803e3d6000fd5b505050506040513d601f19601f8201168201806040525061084891908101906124cd565b9063ffffffff61176d16565b60e3549063ffffffff61176d16565b60e45560e7805474ff00000000000000000000000000000000000000001916600160a01b1790554260e555565b60e35490565b60065490565b6000806108b1600f600163ffffffff6117af16565b905080607354141561097e5760006007607354600f811015156108d057fe5b600702016006015411156108e85760009150506105cf565b60006074607354600f811015156108fb57fe5b6007020160060154111561094e57426074607354600f8110151561091b57fe5b60070201600601546007607354600f8110151561093457fe5b60070201600501540111151561094e5760009150506105cf565b607354607490600f811061095e57fe5b600702016001015461096e610896565b141561097e5760009150506105cf565b600191505090565b600060015b60de54811015610a20576001600160a01b038316600090815260706020908152604080832084845260020190915290205460ff1615610a1857600081815260e160205260409020600301546109e790839063ffffffff61154616565b6001600160a01b03841660009081526070602090815260408083208584526002019091529020805460ff1916905591505b60010161098b565b5060df54610a34908263ffffffff61154616565b60df556001600160a01b038216600090815260e260205260409020819055610a5c8282611575565b816001600160a01b0316610a6e6105cd565b6001600160a01b03167f6faf93231a456e552dbc9961f58d9713ee4f2e69d15f1975b050ef0911053a7b600084604051610aa9929190612ed8565b60405180910390a35050565b60006074607354600f81101515610ac857fe5b6007020160010154610ad8610896565b1015905090565b60715490565b60735490565b610af36106c7565b1515610b1457604051600160e51b62461bcd0281526004016105f990612f77565b60e754600160a01b900460ff161515610b4257604051600160e51b62461bcd0281526004016105f990612fd7565b30311515610b6557604051600160e51b62461bcd0281526004016105f990612fe7565b6001600160a01b0382161515610b9057604051600160e51b62461bcd0281526004016105f990612f57565b801515610bb257604051600160e51b62461bcd0281526004016105f990612ff7565b80610bbb611491565b6001600160a01b03166370a08231846040518263ffffffff1660e01b8152600401610be69190612e5a565b60206040518083038186803b158015610bfe57600080fd5b505afa158015610c12573d6000803e3d6000fd5b505050506040513d601f19601f82011682018060405250610c3691908101906124cd565b1015610c5757604051600160e51b62461bcd0281526004016105f990612ef7565b60e4548102610c64611491565b60e754604051600160e01b6323b872dd0281526001600160a01b03928316926323b872dd92610ca792889290911690670de0b6b3a7640000880290600401612e68565b602060405180830381600087803b158015610cc157600080fd5b505af1158015610cd5573d6000803e3d6000fd5b505050506040513d601f19601f82011682018060405250610cf99190810190612491565b506040516001600160a01b0384169082156108fc029083906000818181858888f19350505050158015610d30573d6000803e3d6000fd5b50505050565b610d3e611121565b1515610d5f57604051600160e51b62461bcd0281526004016105f990612fc7565b610d676106c7565b1515610d8857604051600160e51b62461bcd0281526004016105f990612f17565b60e05460ff1615610dae57604051600160e51b62461bcd0281526004016105f990613047565b610db66117f1565b610dbe6118a5565b60e0805460ff19166001179055565b610dd5611121565b1515610df657604051600160e51b62461bcd0281526004016105f990612fc7565b6072546040516000916001600160a01b0316907f8be0079c531659141344cd1fd0a4f28419497f9722a3daafe3b4186f6b6457e0908390a3607280546001600160a01b0319169055565b6000806000806000806000610e5361238e565b607489600f8110610e6057fe5b6040805160e0810182526007929092029290920180548083526001820154602084018190526002830154948401859052600383015460608501819052600484015460808601819052600585015460a0870181905260069095015460c0909601869052929f919e50949c50939a5098509650945092505050565b60e45490565b33600081815260706020908152604080832060018101546004820154825484518187028101870190955280855295966060968896889692959392600385019290918591908a9084015b82821015610f70576000848152602090819020604080518082019091526002850290910180546001600160a01b03168252600190810154828401529083529092019101610f28565b50505050925080805480602002602001604051908101604052809291908181526020016000905b82821015610ffb57838290600052602060002090600502016040518060a00160405290816000820154815260200160018201548152602001600282015481526020016003820154815260200160048201548152505081526020019060010190610f97565b50505050905094509450945094505090919293565b600061101a611121565b151561103b57604051600160e51b62461bcd0281526004016105f990612fc7565b60006074607354600f8110151561104e57fe5b600702016006015411156110bc57426074607354600f8110151561106e57fe5b60070201600601546007607354600f8110151561108757fe5b6007020160050154011115156110bc5761109f6119b4565b6110a761089c565b156110b4576110b46119c2565b5060016105cf565b607354607490600f81106110cc57fe5b60070201600101546110dc610896565b141561110757426007607354600f811015156110f457fe5b60070201600601819055506110a761089c565b50600090565b6072546001600160a01b031690565b303190565b6072546000906001600160a01b03166111386105cd565b6001600160a01b031614905090565b607481600f811061115457fe5b60070201805460018201546002830154600384015460048501546005860154600690960154949650929491939092919087565b61118f611121565b15156111b057604051600160e51b62461bcd0281526004016105f990612fc7565b6111b86106c7565b15156111d957604051600160e51b62461bcd0281526004016105f990612f77565b60e754600160a01b900460ff16151561120757604051600160e51b62461bcd0281526004016105f990612fd7565b60e65460e55401421161122f57604051600160e51b62461bcd0281526004016105f990612f67565b6001600160a01b038116151561125a57604051600160e51b62461bcd0281526004016105f990612f47565b6040516001600160a01b03821690303180156108fc02916000818181858888f19350505050158015611290573d6000803e3d6000fd5b5050565b60008080600785600f81106112a557fe5b600702016004016000856001600160a01b03166001600160a01b0316815260200190815260200160002060000154600786600f811015156112e257fe5b600702016004016000866001600160a01b03166001600160a01b0316815260200190815260200160002060010154600787600f8110151561131f57fe5b6001600160a01b0397909716600090815260079790970201600401602052604090952060020154909694955060ff169392505050565b6000806074607354600f8110151561136957fe5b600702016006015411156113b257607354600790600f811061138757fe5b600702016005015442036074607354600f811015156113a257fe5b60070201600601540390506105cf565b5060006105cf565b606090565b6000806000806000806113d06123cb565b600788600f81106113dd57fe5b6040805160c081018252600792909202929092018054808352600182015460208401819052600283015494840185905260038301546060850181905260058401546080860181905260069094015460a0909501859052919d909c50939a5098509650945092505050565b61144f611121565b151561147057604051600160e51b62461bcd0281526004016105f990612fc7565b61147981611a23565b50565b6001546001600160a01b031690565b60e55490565b60005461010090046001600160a01b031690565b6114af8282611aaa565b6114b761089c565b15156114d857604051600160e51b62461bcd0281526004016105f990613007565b607354607490600f81106114e857fe5b6007020160010154611508826114fc610896565b9063ffffffff61154616565b111561129057604051600160e51b62461bcd0281526004016105f990613017565b600061154060055483611af790919063ffffffff16565b92915050565b60008282018381101561156e57604051600160e51b62461bcd0281526004016105f990612f37565b9392505050565b6112908282611b38565b6115898282611290565b600061159482611529565b90506115a1838383611be0565b6115ac838383611f7e565b505050565b3460006115d6601e6115ca84606463ffffffff61176d16565b9063ffffffff611af716565b905060006115f0600a6115ca85606463ffffffff61176d16565b9050600061160a600a6115ca86606463ffffffff61176d16565b90506000611624600a6115ca87606463ffffffff61176d16565b9050600061164c82611640858188818c8c63ffffffff6117af16565b9063ffffffff6117af16565b6001546040519192506001600160a01b03169086156108fc029087906000818181858888f19350505050158015611687573d6000803e3d6000fd5b506002546040516001600160a01b039091169085156108fc029086906000818181858888f193505050501580156116c2573d6000803e3d6000fd5b506003546040516001600160a01b039091169084156108fc029085906000818181858888f193505050501580156116fd573d6000803e3d6000fd5b506004546040516001600160a01b039091169082156108fc029083906000818181858888f19350505050158015611738573d6000803e3d6000fd5b50505050505050565b61174b8282612047565b611753612136565b156112905761176061089c565b15611290576112906119c2565b600061156e83836040518060400160405280601a81526020017f536166654d6174683a206469766973696f6e206279207a65726f0000000000008152506121f2565b600061156e83836040518060400160405280601e81526020017f536166654d6174683a207375627472616374696f6e206f766572666c6f770000815250612230565b6117f96106c7565b151561181a57604051600160e51b62461bcd0281526004016105f990612f17565b600060015b60de5481101561189f576000607482600f811061183857fe5b600702016003015411156118975761186d600782600f811061185657fe5b60070201600201548361154690919063ffffffff16565b9150607481600f811061187c57fe5b6007020160030154600082815260e160205260409020600101555b60010161181f565b5060dd55565b6118ad6106c7565b15156118ce57604051600160e51b62461bcd0281526004016105f990612f17565b60dd5415156118f257604051600160e51b62461bcd0281526004016105f990612f87565b60015b60de54811015611479576000607482600f811061190e57fe5b600702016003015411156119ac57600081815260e1602052604090208181556001015460dd5461194a91906115ca90606463ffffffff61176d16565b600082815260e16020526040902060020155611999600782600f811061196c57fe5b600702016003015460e160008481526020019081526020016000206002015461176d90919063ffffffff16565b600082815260e160205260409020600301555b6001016118f5565b6119c06073544261225f565b565b6073546119d690600163ffffffff61154616565b60738190556119f990607490600f81106119ec57fe5b600702016002015461227c565b611a176074607354600f81101515611a0d57fe5b6007020154612281565b6119c060735442612286565b6001600160a01b0381161515611a4e57604051600160e51b62461bcd0281526004016105f990612f27565b6072546040516001600160a01b038084169216907f8be0079c531659141344cd1fd0a4f28419497f9722a3daafe3b4186f6b6457e090600090a3607280546001600160a01b0319166001600160a01b0392909216919091179055565b6001600160a01b0382161515611ad557604051600160e51b62461bcd0281526004016105f990613027565b80151561129057604051600160e51b62461bcd0281526004016105f990613067565b6000821515611b0857506000611540565b828202828482811515611b1757fe5b041461156e57604051600160e51b62461bcd0281526004016105f990612fa7565b611b40611491565b6001600160a01b03166340c10f1983836040518363ffffffff1660e01b8152600401611b6d929190612e90565b602060405180830381600087803b158015611b8757600080fd5b505af1158015611b9b573d6000803e3d6000fd5b505050506040513d601f19601f82011682018060405250611bbf9190810190612491565b151561129057604051600160e51b62461bcd0281526004016105f990613037565b611c06816007607354600f81101515611bf557fe5b60070201549063ffffffff61154616565b607354600790600f8110611c1657fe5b6007020160000181905550611c4d60016007607354600f81101515611c3757fe5b600702016001015461154690919063ffffffff16565b607354600790600f8110611c5d57fe5b6007020160010181905550611c93816007607354600f81101515611c7d57fe5b60070201600201546117af90919063ffffffff16565b607354600790600f8110611ca357fe5b600702016002018190555060006074607354600f81101515611cc157fe5b600702016003015411156115ac57611d14826007607354600f81101515611ce457fe5b6001600160a01b03871660009081526004600792909202929092010160205260409020549063ffffffff61154616565b607354600790600f8110611d2457fe5b600702016004016000856001600160a01b03166001600160a01b0316815260200190815260200160002060000181905550611d9d816007607354600f81101515611d6a57fe5b6001600160a01b03871660009081526004600792909202929092010160205260409020600101549063ffffffff61154616565b607354600790600f8110611dad57fe5b6001600160a01b0386166000908152600460079290920292909201016020526040902060010155607354607490600f8110611de457fe5b60070201600401546007607354600f81101515611dfd57fe5b6001600160a01b038616600090815260046007929092029290920101602052604090205410801590611e845750607354607490600f8110611e3a57fe5b60070201600501546007607354600f81101515611e5357fe5b600702016004016000856001600160a01b03166001600160a01b031681526020019081526020016000206001015410155b156115ac57607354600790600f8110611e9957fe5b6001600160a01b038516600090815260046007929092029290920101602052604090206002015460ff161515611f1157611ef560016007607354600f81101515611edf57fe5b600702016003015461154690919063ffffffff16565b607354600790600f8110611f0557fe5b60070201600301819055505b60016007607354600f81101515611f2457fe5b6001600160a01b038616600090815260046007929092029290920101602090815260408083206002908101805495151560ff1996871617905560708352818420607354855201909152902080549091166001179055505050565b670de0b6b3a76400006000611fa1611f94610715565b839063ffffffff61176d16565b6001600160a01b0386166000818152607060208181526040808420815160a08101835260735481528084018881529281018c8152606082018c815242608084019081526003808601805460018181018355918c52898c209651600590910290960195865596518588015592516002850155905191830191909155516004918201559590945291905291015491925061203f919063ffffffff61154616565b505050505050565b600061205282611529565b905060143614156115ac57600061209f6000368080601f0160208091040260200160405190810160405280939291908181526020018383808284376000920191909152506122a392505050565b90506001600160a01b0380821690851614156120d057604051600160e51b62461bcd0281526004016105f990612f07565b6001600160a01b0381163314156120fc57604051600160e51b62461bcd0281526004016105f990612fb7565b6000612118606461084860715486611af790919063ffffffff16565b90506121258286836122f4565b61212f8282611b38565b5050505050565b6000806007607354600f8110151561214a57fe5b60070201600601541115612160575060016105cf565b60006074607354600f8110151561217357fe5b600702016006015411156121c457426074607354600f8110151561219357fe5b60070201600601546007607354600f811015156121ac57fe5b6007020160050154011115156121c4576110b46119b4565b607354607490600f81106121d457fe5b60070201600101546121e4610896565b1415611107576110b46119b4565b60008183151561221857604051600160e51b62461bcd0281526004016105f99190612ee6565b506000838581151561222657fe5b0495945050505050565b6000818484111561225757604051600160e51b62461bcd0281526004016105f99190612ee6565b505050900390565b80600783600f811061226d57fe5b60070201600601819055505050565b607155565b600555565b80600783600f811061229457fe5b60070201600501819055505050565b600080600160145b80156122eb578185600183038151811015156122c357fe5b016020015160ff60f891821c821b90911c1602929092019161010090910290600019016122ab565b50909392505050565b6001600160a01b038381166000818152607060208181526040808420815180830190925288871682528183018881528154600180820184558388528588209451600290920290940180546001600160a01b0319169190991617885551968201969096559390925290529081015461236a91611546565b6001600160a01b039093166000908152607060205260409020600101929092555050565b6040518060e00160405280600081526020016000815260200160008152602001600081526020016000815260200160008152602001600081525090565b6040518060c001604052806000815260200160008152602001600081526020016000815260200160008152602001600081525090565b600061156e82356131db565b600061156e82516131e6565b600061156e82356105cf565b600061156e82516105cf565b60006020828403121561244357600080fd5b600061244f8484612401565b949350505050565b6000806040838503121561246a57600080fd5b60006124768585612401565b925050602061248785828601612419565b9150509250929050565b6000602082840312156124a357600080fd5b600061244f848461240d565b6000602082840312156124c157600080fd5b600061244f8484612419565b6000602082840312156124df57600080fd5b600061244f8484612425565b600080604083850312156124fe57600080fd5b600061250a8585612419565b925050602061248785828601612401565b60006125278383612dc6565b505060400190565b600061253b8383612dea565b505060a00190565b600061254f8383612e43565b505060200190565b612560816131f7565b82525050565b612560816131db565b600061257a826131ce565b61258481856131d2565b935061258f836131c8565b60005b828110156125ba576125a586835161251b565b95506125b0826131c8565b9150600101612592565b5093949350505050565b60006125cf826131ce565b6125d981856131d2565b93506125e4836131c8565b60005b828110156125ba576125fa86835161252f565b9550612605826131c8565b91506001016125e7565b600061261a826131ce565b61262481856131d2565b935061262f836131c8565b60005b828110156125ba57612645868351612543565b9550612650826131c8565b9150600101612632565b612560816131e6565b612560816131fe565b61256081613209565b6000612680826131ce565b61268a81856131d2565b935061269a818560208601613214565b6126a381613240565b9093019392505050565b60006126ba602a836131d2565b7f4275796261636b43726f776473616c653a204d697373696e672048504120546f8152600160b21b691ad95b88105b5bdd5b9d02602082015260400192915050565b6000612709602e836131d2565b7f43726f776473616c653a205468652062656e65666963696172792063616e6e6f81527f7420626520612072656665726572000000000000000000000000000000000000602082015260400192915050565b60006127686025836131d2565b7f4469737443726f776473616c653a2043726f776473616c65206e6f7420636f6d8152600160d81b64706c69746502602082015260400192915050565b60006127b26026836131d2565b7f4f776e61626c653a206e6577206f776e657220697320746865207a65726f20618152600160d01b6564647265737302602082015260400192915050565b60006127fd601b836131d2565b7f536166654d6174683a206164646974696f6e206f766572666c6f770000000000815260200192915050565b60006128366032836131d2565b7f4275796261636b43726f776473616c653a206f776e657241646472657373206981527f7320746865207a65726f20616464726573730000000000000000000000000000602082015260400192915050565b60006128956031836131d2565b7f4275796261636b43726f776473616c653a2042656e656669636961727920697381527f20746865207a65726f2061646472657373000000000000000000000000000000602082015260400192915050565b60006128f46026836131d2565b7f4275796261636b43726f776473616c653a204275796261636b206e6f7420636f8152600160d01b656d706c69746502602082015260400192915050565b600061293f6028836131d2565b7f4275796261636b43726f776473616c653a2043726f776473616c65206e6f74208152600160c01b67636f6d706c69746502602082015260400192915050565b600061298c603d836131d2565b7f4469737443726f776473616c653a20546865206e756d626572206f6620756e7381527f6f6c6420746f6b656e732073686f756c64206e6f74206265207a65726f000000602082015260400192915050565b60006129eb6026836131d2565b7f4275796261636b43726f776473616c653a2043616c63756c6174696f6e20636f8152600160d01b656d706c65746502602082015260400192915050565b6000612a366021836131d2565b7f536166654d6174683a206d756c7469706c69636174696f6e206f766572666c6f8152600160f81b607702602082015260400192915050565b6000612a7c6029836131d2565b7f43726f776473616c653a205468652073656e6465722063616e6e6f74206265208152600160b91b6830903932b332b932b902602082015260400192915050565b6000612aca6020836131d2565b7f4f776e61626c653a2063616c6c6572206973206e6f7420746865206f776e6572815260200192915050565b6000612b03602a836131d2565b7f4275796261636b43726f776473616c653a2043616c63756c6174696f6e206e6f8152600160b01b697420636f6d706c65746502602082015260400192915050565b6000612b526031836131d2565b7f4275796261636b43726f776473616c653a20436f6e747261637420455448207381527f686f756c64206e6f74206265207a65726f000000000000000000000000000000602082015260400192915050565b6000612bb16020836131d2565b7f4275796261636b43726f776473616c653a20687061416d6f756e742069732030815260200192915050565b6000612bea6040836131d2565b7f53746167657343726f776473616c653a2046696e616c20737461676520636f6d81527f706c657465642e2043726f776473616c6520616c726561647920636c6f736564602082015260400192915050565b6000612c496023836131d2565b7f53746167657343726f776473616c653a207374616765206361702065786365658152600160ea1b6219195902602082015260400192915050565b6000612c91602a836131d2565b7f43726f776473616c653a2062656e656669636961727920697320746865207a658152600160b01b69726f206164647265737302602082015260400192915050565b6000612ce0601f836131d2565b7f4d696e74656443726f776473616c653a206d696e74696e67206661696c656400815260200192915050565b6000612d196023836131d2565b7f4469737443726f776473616c653a2043616c63756c6174696f6e20636f6d706c8152600160e81b6265746502602082015260400192915050565b6000612d61601f836131d2565b7f5265656e7472616e637947756172643a207265656e7472616e742063616c6c00815260200192915050565b6000612d9a6019836131d2565b7f43726f776473616c653a20776569416d6f756e74206973203000000000000000815260200192915050565b80516040830190612dd78482612566565b506020820151610d306020850182612e43565b805160a0830190612dfb8482612e43565b506020820151612e0e6020850182612e43565b506040820151612e216040850182612e43565b506060820151612e346060850182612e43565b506080820151610d3060808501825b612560816105cf565b602081016115408284612566565b602081016115408284612557565b60608101612e768286612557565b612e836020830185612566565b61244f6040830184612e43565b60408101612e9e8285612566565b61156e6020830184612e43565b6020808252810161156e818461260f565b60208101611540828461265a565b602081016115408284612663565b60408101612e9e828561266c565b6020808252810161156e8184612675565b60208082528101611540816126ad565b60208082528101611540816126fc565b602080825281016115408161275b565b60208082528101611540816127a5565b60208082528101611540816127f0565b6020808252810161154081612829565b6020808252810161154081612888565b60208082528101611540816128e7565b6020808252810161154081612932565b602080825281016115408161297f565b60208082528101611540816129de565b6020808252810161154081612a29565b6020808252810161154081612a6f565b6020808252810161154081612abd565b6020808252810161154081612af6565b6020808252810161154081612b45565b6020808252810161154081612ba4565b6020808252810161154081612bdd565b6020808252810161154081612c3c565b6020808252810161154081612c84565b6020808252810161154081612cd3565b6020808252810161154081612d0c565b6020808252810161154081612d54565b6020808252810161154081612d8d565b602081016115408284612e43565b608081016130938287612e43565b81810360208301526130a5818661256f565b90506130b46040830185612e43565b81810360608301526130c681846125c4565b9695505050505050565b60408101612e9e8285612e43565b606081016130ec8286612e43565b6130f96020830185612e43565b61244f604083018461265a565b60c081016131148289612e43565b6131216020830188612e43565b61312e6040830187612e43565b61313b6060830186612e43565b6131486080830185612e43565b61315560a0830184612e43565b979650505050505050565b60e0810161316e828a612e43565b61317b6020830189612e43565b6131886040830188612e43565b6131956060830187612e43565b6131a26080830186612e43565b6131af60a0830185612e43565b6131bc60c0830184612e43565b98975050505050505050565b60200190565b5190565b90815260200190565b6000611540826131eb565b151590565b6001600160a01b031690565b6000611540825b6000611540826131db565b6000611540826105cf565b60005b8381101561322f578181015183820152602001613217565b83811115610d305750506000910152565b601f01601f19169056fea265627a7a723058209dfdc1918ade7d249ecb624382237f899e493d7705eede0ee4610d609b5939386c6578706572696d656e74616cf5003760806040523480156200001157600080fd5b5060405180606001604052806021815260200162001231602191396040518060400160405280600381526020017f485041000000000000000000000000000000000000000000000000000000000081525060126200008462000078620000cd60201b60201c565b620000d260201b60201c565b8251620000999060049060208601906200024d565b508151620000af9060059060208501906200024d565b506006805460ff191660ff9290921691909117905550620002ef9050565b335b90565b620000ed8160036200012460201b62000c801790919060201c565b6040516001600160a01b038216907f6ae172837ea30b801fbfcdd4108aa1d5bf8ff775444fd70256b44e6bf3dfc3f690600090a250565b620001368282620001c860201b60201c565b15620001a357604080517f08c379a000000000000000000000000000000000000000000000000000000000815260206004820152601f60248201527f526f6c65733a206163636f756e7420616c72656164792068617320726f6c6500604482015290519081900360640190fd5b6001600160a01b0316600090815260209190915260409020805460ff19166001179055565b60006001600160a01b03821615156200022d576040517f08c379a00000000000000000000000000000000000000000000000000000000081526004018080602001828103825260228152602001806200120f6022913960400191505060405180910390fd5b506001600160a01b03166000908152602091909152604090205460ff1690565b828054600181600116156101000203166002900490600052602060002090601f016020900481019282601f106200029057805160ff1916838001178555620002c0565b82800160010185558215620002c0579182015b82811115620002c0578251825591602001919060010190620002a3565b50620002ce929150620002d2565b5090565b620000cf91905b80821115620002ce5760008155600101620002d9565b610f1080620002ff6000396000f3fe608060405234801561001057600080fd5b50600436106100f55760003560e01c806370a0823111610097578063a457c2d711610066578063a457c2d7146102db578063a9059cbb14610307578063aa271e1a14610333578063dd62ed3e14610359576100f5565b806370a082311461027d57806395d89b41146102a3578063983b2d56146102ab57806398650275146102d3576100f5565b806323b872dd116100d357806323b872dd146101d1578063313ce56714610207578063395093511461022557806340c10f1914610251576100f5565b806306fdde03146100fa578063095ea7b31461017757806318160ddd146101b7575b600080fd5b610102610387565b6040805160208082528351818301528351919283929083019185019080838360005b8381101561013c578181015183820152602001610124565b50505050905090810190601f1680156101695780820380516001836020036101000a031916815260200191505b509250505060405180910390f35b6101a36004803603604081101561018d57600080fd5b506001600160a01b03813516906020013561041d565b604080519115158252519081900360200190f35b6101bf61043a565b60408051918252519081900360200190f35b6101a3600480360360608110156101e757600080fd5b506001600160a01b03813581169160208101359091169060400135610440565b61020f6104cd565b6040805160ff9092168252519081900360200190f35b6101a36004803603604081101561023b57600080fd5b506001600160a01b0381351690602001356104d6565b6101a36004803603604081101561026757600080fd5b506001600160a01b03813516906020013561052a565b6101bf6004803603602081101561029357600080fd5b50356001600160a01b0316610586565b6101026105a1565b6102d1600480360360208110156102c157600080fd5b50356001600160a01b0316610602565b005b6102d1610659565b6101a3600480360360408110156102f157600080fd5b506001600160a01b03813516906020013561066b565b6101a36004803603604081101561031d57600080fd5b506001600160a01b0381351690602001356106d9565b6101a36004803603602081101561034957600080fd5b50356001600160a01b03166106ed565b6101bf6004803603604081101561036f57600080fd5b506001600160a01b0381358116916020013516610706565b60048054604080516020601f60026000196101006001881615020190951694909404938401819004810282018101909252828152606093909290918301828280156104135780601f106103e857610100808354040283529160200191610413565b820191906000526020600020905b8154815290600101906020018083116103f657829003601f168201915b5050505050905090565b600061043161042a610731565b8484610735565b50600192915050565b60025490565b600061044d84848461082b565b6104c384610459610731565b6104be85604051806060016040528060288152602001610e2d602891396001600160a01b038a16600090815260016020526040812090610497610731565b6001600160a01b03168152602081019190915260400160002054919063ffffffff61099116565b610735565b5060019392505050565b60065460ff1690565b60006104316104e3610731565b846104be85600160006104f4610731565b6001600160a01b03908116825260208083019390935260409182016000908120918c16815292529020549063ffffffff610a2b16565b600061053c610537610731565b6106ed565b151561057c57604051600160e51b62461bcd028152600401808060200182810382526030815260200180610ddc6030913960400191505060405180910390fd5b6104318383610a8f565b6001600160a01b031660009081526020819052604090205490565b60058054604080516020601f60026000196101006001881615020190951694909404938401819004810282018101909252828152606093909290918301828280156104135780601f106103e857610100808354040283529160200191610413565b61060d610537610731565b151561064d57604051600160e51b62461bcd028152600401808060200182810382526030815260200180610ddc6030913960400191505060405180910390fd5b61065681610b84565b50565b610669610664610731565b610bcc565b565b6000610431610678610731565b846104be85604051806060016040528060258152602001610ec060259139600160006106a2610731565b6001600160a01b03908116825260208083019390935260409182016000908120918d1681529252902054919063ffffffff61099116565b60006104316106e6610731565b848461082b565b600061070060038363ffffffff610c1416565b92915050565b6001600160a01b03918216600090815260016020908152604080832093909416825291909152205490565b3390565b6001600160a01b038316151561077f57604051600160e51b62461bcd028152600401808060200182810382526024815260200180610e9c6024913960400191505060405180910390fd5b6001600160a01b03821615156107c957604051600160e51b62461bcd028152600401808060200182810382526022815260200180610d946022913960400191505060405180910390fd5b6001600160a01b03808416600081815260016020908152604080832094871680845294825291829020859055815185815291517f8c5be1e5ebec7d5bd14f71427d1e84f3dd0314c0f7b2291e5b200ac8c7c3b9259281900390910190a3505050565b6001600160a01b038316151561087557604051600160e51b62461bcd028152600401808060200182810382526025815260200180610e776025913960400191505060405180910390fd5b6001600160a01b03821615156108bf57604051600160e51b62461bcd028152600401808060200182810382526023815260200180610d716023913960400191505060405180910390fd5b61090281604051806060016040528060268152602001610db6602691396001600160a01b038616600090815260208190526040902054919063ffffffff61099116565b6001600160a01b038085166000908152602081905260408082209390935590841681522054610937908263ffffffff610a2b16565b6001600160a01b038084166000818152602081815260409182902094909455805185815290519193928716927fddf252ad1be2c89b69c2b068fc378daa952ba7f163c4a11628f55a4df523b3ef92918290030190a3505050565b60008184841115610a2357604051600160e51b62461bcd0281526004018080602001828103825283818151815260200191508051906020019080838360005b838110156109e85781810151838201526020016109d0565b50505050905090810190601f168015610a155780820380516001836020036101000a031916815260200191505b509250505060405180910390fd5b505050900390565b600082820183811015610a885760408051600160e51b62461bcd02815260206004820152601b60248201527f536166654d6174683a206164646974696f6e206f766572666c6f770000000000604482015290519081900360640190fd5b9392505050565b6001600160a01b0382161515610aef5760408051600160e51b62461bcd02815260206004820152601f60248201527f45524332303a206d696e7420746f20746865207a65726f206164647265737300604482015290519081900360640190fd5b600254610b02908263ffffffff610a2b16565b6002556001600160a01b038216600090815260208190526040902054610b2e908263ffffffff610a2b16565b6001600160a01b0383166000818152602081815260408083209490945583518581529351929391927fddf252ad1be2c89b69c2b068fc378daa952ba7f163c4a11628f55a4df523b3ef9281900390910190a35050565b610b9560038263ffffffff610c8016565b6040516001600160a01b038216907f6ae172837ea30b801fbfcdd4108aa1d5bf8ff775444fd70256b44e6bf3dfc3f690600090a250565b610bdd60038263ffffffff610d0416565b6040516001600160a01b038216907fe94479a9f7e1952cc78f2d6baab678adc1b772d936c6583def489e524cb6669290600090a250565b60006001600160a01b0382161515610c6057604051600160e51b62461bcd028152600401808060200182810382526022815260200180610e556022913960400191505060405180910390fd5b506001600160a01b03166000908152602091909152604090205460ff1690565b610c8a8282610c14565b15610cdf5760408051600160e51b62461bcd02815260206004820152601f60248201527f526f6c65733a206163636f756e7420616c72656164792068617320726f6c6500604482015290519081900360640190fd5b6001600160a01b0316600090815260209190915260409020805460ff19166001179055565b610d0e8282610c14565b1515610d4e57604051600160e51b62461bcd028152600401808060200182810382526021815260200180610e0c6021913960400191505060405180910390fd5b6001600160a01b0316600090815260209190915260409020805460ff1916905556fe45524332303a207472616e7366657220746f20746865207a65726f206164647265737345524332303a20617070726f766520746f20746865207a65726f206164647265737345524332303a207472616e7366657220616d6f756e7420657863656564732062616c616e63654d696e746572526f6c653a2063616c6c657220646f6573206e6f74206861766520746865204d696e74657220726f6c65526f6c65733a206163636f756e7420646f6573206e6f74206861766520726f6c6545524332303a207472616e7366657220616d6f756e74206578636565647320616c6c6f77616e6365526f6c65733a206163636f756e7420697320746865207a65726f206164647265737345524332303a207472616e736665722066726f6d20746865207a65726f206164647265737345524332303a20617070726f76652066726f6d20746865207a65726f206164647265737345524332303a2064656372656173656420616c6c6f77616e63652062656c6f77207a65726fa165627a7a72305820e3cbef98b88d40c68b43ae8ce388ec9a0dc5d3e0d5d09c62d2d05b6030cfcdac0029526f6c65733a206163636f756e7420697320746865207a65726f2061646472657373486967686c792050726f66697461626c6520416e6f6e796d6f757320546f6b656e",
  "source": "pragma solidity ^0.5.0;\r\npragma experimental ABIEncoderV2;\r\n\r\nimport \"./BuybackCrowdsale.sol\";\r\nimport \"./HighlyProfitableAnonymousToken.sol\";\r\n\r\n/**\r\n * @title SampleCrowdsale\r\n * @dev This is an example of a fully fledged crowdsale.\r\n * The way to add new features to a base crowdsale is by multiple inheritance.\r\n * In this example we are providing following extensions:\r\n * CappedCrowdsale - sets a max boundary for raised funds\r\n * MintedCrowdsale - assumes the token can be minted by the crowdsale, which does so\r\n * when receiving purchases.\r\n *\r\n * After adding multiple features it's good practice to run integration tests\r\n * to ensure that subcontracts works together as intended.\r\n */\r\ncontract HpaCrowdsale is BuybackCrowdsale {\r\n    constructor (\r\n        address payable platformWallet,\r\n        address payable priceTokenBackingWallet,\r\n        address payable investBoxWallet,\r\n        address payable otherWallet\r\n    )\r\n        public\r\n        Crowdsale(\r\n            platformWallet,\r\n            priceTokenBackingWallet,\r\n            investBoxWallet,\r\n            otherWallet,\r\n            new  HighlyProfitableAnonymousToken()\r\n        )\r\n        BuybackCrowdsale()\r\n    {\r\n\t\t\r\n    }\r\n}",
  "sourcePath": "F:\\YandexDisk\\Projects\\crypto\\ICO\\contracts\\truffle\\contracts\\HPACrowdsale.sol",
  "compiler": {
    "name": "solc",
    "version": "0.5.5+commit.47a71e8f.Emscripten.clang"
  },
  "schemaVersion": "3.0.23",
  "updatedAt": "2020-02-22T21:33:10.048Z",
  "devdoc": {
    "details": "This is an example of a fully fledged crowdsale.\r The way to add new features to a base crowdsale is by multiple inheritance.\r In this example we are providing following extensions:\r CappedCrowdsale - sets a max boundary for raised funds\r MintedCrowdsale - assumes the token can be minted by the crowdsale, which does so\r when receiving purchases.\r  * After adding multiple features it's good practice to run integration tests\r to ensure that subcontracts works together as intended.\r",
    "methods": {
      "buyTokens(address)": {
        "details": "low level token purchase ***DO NOT OVERRIDE***\r This function has a non-reentrancy guard, so it shouldn't be called by\r another `nonReentrant` function.\r",
        "params": {
          "beneficiary": "Recipient of the token purchase\r"
        }
      },
      "currentStage()": {
        "return": "current stage.\r"
      },
      "hasClosed()": {
        "details": "Checks whether the period in which the crowdsale is open has already elapsed.\r",
        "return": "Whether crowdsale period has elapsed\r"
      },
      "isOpen()": {
        "return": "true if the crowdsale is open, false otherwise.\r"
      },
      "isOwner()": {
        "details": "Returns true if the caller is the current owner.\r"
      },
      "manualyCloseCurrentStage()": {
        "details": "Manualy close current stage\r"
      },
      "owner()": {
        "details": "Returns the address of the current owner.\r"
      },
      "platformWallet()": {
        "return": "the address where the funds raised for the development of the platform are collected.\r"
      },
      "rate()": {
        "return": "the number of token units a buyer gets per wei.\r"
      },
      "refPercent()": {
        "return": "the referral percent.\r"
      },
      "remStageTime()": {
        "return": "Remaining Stage Time\r"
      },
      "renounceOwnership()": {
        "details": "Leaves the contract without owner. It will not be possible to call\r `onlyOwner` functions anymore. Can only be called by the current owner.\r      * NOTE: Renouncing ownership will leave the contract without an owner,\r thereby removing any functionality that is only available to the owner.\r"
      },
      "stageCapReached()": {
        "details": "Checks whether the stage cap has been reached.\r",
        "return": "Whether the stage cap was reached\r"
      },
      "stageTiming(uint256)": {
        "return": "the stage opening and closing time.\r"
      },
      "token()": {
        "return": "the token being sold.\r"
      },
      "transferOwnership(address)": {
        "details": "Transfers ownership of the contract to a new account (`newOwner`).\r Can only be called by the current owner.\r"
      },
      "viewStage(uint256)": {
        "return": "stage params.\r"
      },
      "viewStageStat(uint256)": {
        "return": "stage stats.\r"
      },
      "weiRaised()": {
        "return": "the amount of wei raised.\r"
      }
    },
    "title": "SampleCrowdsale\r"
  },
  "userdoc": {
    "methods": {}
  }
}